:020000040800F2
:1000000080070020D514000871050008730500085A
:10001000770500087B0500087F0500080000000048
:100020000000000000000000000000008305000840
:100030008505000800000000870500088905000804
:10004000EF140008EF140008EF140008EF14000884
:10005000EF140008EF140008EF140008EF14000874
:10006000EF140008EF140008EF140008EF14000864
:10007000EF140008EF140008EF140008EF14000854
:10008000EF140008EF140008EF140008EF14000844
:10009000EF140008EF140008EF140008EF14000834
:1000A000EF140008EF140008EF140008EF14000824
:1000B0004D0C0008750F0008CB100008EF14000865
:1000C000EF140008EF140008EF140008EF14000804
:1000D000EF14000847140008EF140008EF1400089C
:1000E000EF140008EF140008EF140008EF140008E4
:1000F000EF140008EF140008EF140008EF140008D4
:10010000EF140008EF140008EF140008EF140008C3
:10011000EF140008EF140008EF140008EF140008B3
:10012000EF140008EF140008EF140008EF140008A3
:1001300000F002F800F03FF80AA090E8000C8244BA
:100140008344AAF10107DA4501D100F034F8AFF297
:10015000090EBAE80F0013F0010F18BFFB1A43F0A5
:1001600001031847F8390000183A0000103A24BF7C
:1001700078C878C1FAD8520724BF30C830C144BF0C
:1001800004680C607047000000230024002500264E
:10019000103A28BF78C1FBD8520728BF30C148BFEA
:1001A0000B607047642903F07B80002070471FB507
:1001B0001FBD10B510BD03F03BF91146FFF7F7FF67
:1001C00000F008F803F059F903B4FFF7F2FF03BC9D
:1001D00001F094F808B500F048FA01F025F84FF462
:1001E000A06001F097F94FF4E13001F095F800F0CC
:1001F000BDFA00F0D7FA00F091FD00F071FB41F676
:100200001F41092000F02DFD41F61F41092000F09B
:100210002FFF00F045FE0BE08CA003F001F88E48A4
:100220000068C0438D49C1F8A001642001F039F88D
:1002300000F0E5FB0028EFD101208749086088A085
:1002400002F0EEFF00F072FCFEE000F0B8FE0446A3
:1002500003F08CFB854908800846018884A002F0E1
:10026000DFFF684600F045FC0028EDD184A002F0D5
:10027000D7FF9DF80000232879D19DF801000828B8
:1002800076D007DC082874D2DFE800F07B82899002
:10029000979EA5AC442828D008DC09286AD04128BC
:1002A0000BD0422811D0432863D116E0452824D032
:1002B000462828D04728F7D147E074A002F0B0FFC5
:1002C0007448007800F07AFDA7E073A002F0A8FF60
:1002D0007048007800F08DFD9FE071A002F0A0FF53
:1002E0006C48007800F09FFD97E06FA002F098FF47
:1002F0006848007800F0B0FD8FE06DA002F090FF3C
:1003000000F055FD89E06CA002F08AFF6C4800788F
:1003100008B9012000E0002069490870084600780B
:10032000012806D100204C490860642000F0B9FF84
:100330000AE000F03CFD00206249087001204649B7
:100340000860642000F0ADFF67E05FA002F068FF86
:100350005F480068C0435F49C1F8A801642000F00D
:10036000A0FF5B48006830B100F00FFD08E068E0D6
:100370003FE04CE044E000F01AFD002050490870D6
:100380004BE055A002F04CFF00204249087044E0C9
:1003900054A002F045FF01203E4908703DE054A002
:1003A00002F03EFF02203B49087036E053A002F005
:1003B00037FF0320374908702FE053A002F030FFC9
:1003C00004203449087028E052A002F029FF0520DB
:1003D0003049087021E052A002F022FF06202D498A
:1003E00008701AE051A002F01BFF0720294908708D
:1003F00013E051A002F014FF0820264908700CE019
:1004000050A002F00DFF09202249087005E09DF878
:1004100001104FA002F004FF00BF00BF00200E49F2
:10042000091D0860C82000F03CFF01200B49C1F8FD
:10043000A40100208DF802008DF801008DF8000065
:1004400002E047A002F0ECFEFFE600004E5246CE6E
:10045000B4C1ACBDD30D0A00A08123420080234269
:100460004E5246D2D1C1ACBDD30D0A0004000020CB
:1004700064697374203D202564636D0D0A000000DB
:10048000BDD3CAD5CAFDBEDDA3BA0000C7B0BDF852
:100490000D0A000000000020BAF3CDCB0D0A0000C9
:1004A000D7F3D7AA0D0A0000D3D2D7AA0D0A0000AD
:1004B000CDA3D6B90D0A0000D7D4B6AF0D0A0000FF
:1004C0000100002002000020C6F4B6AF0D0A0000B3
:1004D000A80123420000234253706565643D300D3E
:1004E0000A00000053706565643D310D0A0000008C
:1004F00053706565643D320D0A00000053706565F8
:10050000643D330D0A00000053706565643D340D91
:100510000A00000053706565643D350D0A00000057
:1005200053706565643D360D0A00000053706565C3
:10053000643D370D0A00000053706565643D380D59
:100540000A00000053706565643D390D0A00000023
:100550004661756C7420446174613A25640D0A002B
:1005600023CAFDBEDDB4EDCEF3A3A10D0A00000049
:10057000704700BFFEE700BFFEE700BFFEE700BF19
:10058000FEE7704770477047704700000CB50020C9
:10059000019000906C48006840F480306A4908601F
:1005A00000BF6948006800F4003000900198401CCA
:1005B0000190009818B90198B0F5A06FF1D1624888
:1005C000006800F4003010B10120009001E000202C
:1005D00000900098012843D15C48006840F010006A
:1005E0005A4908600846006820F003000860084681
:1005F000006840F002000860534840685249486073
:100600000846406848600846406840F4806048609A
:100610000846406820F47C1048600846406840F472
:10062000E81048600846006840F08070086000BF2D
:100630004548006800F000700028F9D04248406842
:1006400020F00300404948600846406840F002003E
:10065000486000BF3C48406800F00C000828F9D111
:100660000CBD10B5FFF792FF10BD10B536480068FD
:1006700040F00100344908600846406834490840A9
:100680003149486008460068324908402E490860F0
:100690000846006820F4802008600846406820F47E
:1006A000FE0048604FF41F008860FFF7DAFF4FF04C
:1006B00000602949086010BD10B50021002000220B
:1006C000214B5B6803F00C0121B1042906D00829F5
:1006D00028D107E0214B224C236027E01F4B204C00
:1006E000236023E0184B5B6803F47010164B5B68C3
:1006F00003F48032022303EB904022B9194B4343A9
:10070000174C23600DE0104B5B6803F4003323B1FA
:10071000144B4343124C236003E0104B4343104CF3
:10072000236003E00D4B0E4C236000BF00BF064B5F
:100730005B68C3F303130C4CE15C094B1B68CB40B3
:10074000074C236010BD0000001002400020024052
:100750000000FFF8FFFFF6FE08ED00E000127A004F
:100760000800002000093D000C00002008B5012110
:10077000802001F059FA4FF44070ADF800001020CD
:100780008DF8030003208DF802006946044800F04C
:100790008FFF4FF44071024801F037F808BD0000A8
:1007A000001C014008B501210C2001F03DFA40F683
:1007B0000300ADF8000048208DF8030069460748A3
:1007C00000F076FFF020ADF8000048208DF803001F
:1007D0006946034800F06CFF08BD0000000C0140B2
:1007E0000008014070B50546002405E0601CC4B255
:1007F000C82C01DD002070BD0221374801F0C7FB85
:100800000028F3D02946344801F06EFB002405E0AF
:10081000601CC4B2C82C01DD0020ECE701212E4889
:1008200001F0B5FB0028F3D02B4801F05FFBC0B20C
:10083000E1E700B587B0012141F2040001F0F4F9CD
:10084000E020ADF8180018208DF81B0003208DF86B
:100850001A0006A9214800F02BFFE0211F4800F0F4
:10086000D4FF0020ADF804004FF48270ADF806000C
:100870000020ADF808000220ADF80A000120ADF814
:100880000C004002ADF80E003820ADF8100000203A
:10089000ADF812000720ADF8140001A90E4801F0D0
:1008A0004DFA01210C4801F0EEFAFF20FFF79AFF04
:1008B00007B000BD10B50446074800884FF6C77161
:1008C0000840054908800846008820430880012127
:1008D000014801F0D8FA10BD003001400008014085
:1008E00000B587B001210C2001F09EF90320ADF87E
:1008F000180010208DF81B0003208DF81A0006A99F
:10090000B34800F0D5FE0420ADF8180028208DF87B
:100910001B0006A9AE4800F0CBFE0721AC4800F052
:1009200076FFFFF786FF0021AA4801F0ACFA00200D
:10093000ADF804004FF48270ADF806000020ADF869
:100940000800ADF80A00ADF80C004FF40070ADF8E7
:100950000E001820ADF810000020ADF8120007209E
:10096000ADF8140001A99B4801F0E8F9012199486C
:1009700001F089FA00209849086001209749C1F8E0
:10098000800107B000BD2DE9F04107460D4616462F
:1009900000209149091F08603846FFF723FF804671
:1009A000002405E0FF20FFF71DFF2855601CC4B29E
:1009B000B442F7DB01208849091F08604046BDE8C2
:1009C000F0812DE9F04107460C461546002082498A
:1009D000091F08603846FFF705FF8046002605E03E
:1009E00014F8010BFFF7FEFE701CC6B2AE42F7DB37
:1009F00001207949091F08604046BDE8F0811CB517
:100A000077A103C9CDE900010820FFF753FF0522B4
:100A100069463020FFF7D5FF052269461020FFF711
:100A2000B2FF002406E01DF80400A52800D003E072
:100A3000601CC4B2052CF6DB00BF052C01D00120E0
:100A40001CBD0020FCE770B505460C46002062493D
:100A5000091F08602846FFF7C5FE06462046FFF737
:100A6000C1FE01205D49C1F88001304670BD70B5FE
:100A7000044600205849091F08602046FFF7B2FECF
:100A8000FF20FFF7AFFE054601205449C1F8800161
:100A9000284670BD70B505461020FFF70BFF0020FB
:100AA0004D49086020222946A020FFF78AFF012037
:100AB0004A49C1F8840100BF47487C3800680028D3
:100AC000FAD10720FFF7D3FF044621462720FFF77E
:100AD000BAFF04F0100028B1FF21E120FFF7B3FFB7
:100AE000102070BD04F0200008B12020F9E7FF209D
:100AF000F7E770B504461020FFF7DCFE0720FFF78C
:100B0000B6FF054629462720FFF79DFF05F0400068
:100B100050B1202221466120FFF735FFFF21E2205E
:100B2000FFF791FF002070BD0120FCE710B5002009
:100B30002949086005222C492A20FFF742FF01219C
:100B40002120FFF780FF01212220FFF77CFF2821D1
:100B50002520FFF778FF20213120FFF774FF0F21B8
:100B60002620FFF770FF0F212020FFF76CFF0120E8
:100B70001A49C1F8840110BD10B50020164908605B
:100B800005221A493020FFF71CFF052216492A20AA
:100B9000FFF717FF01212120FFF755FF0121222038
:100BA000FFF751FF1A212420FFF74DFF28212520B0
:100BB000FFF749FF0F212620FFF745FF0E212020D8
:100BC000FFF741FF01200549C1F8840110BD000075
:100BD0000008014000300140840121420000214210
:100BE000A5A5A5A5A5000000573B0008523B00089D
:100BF0007FB505460C460121084601F022F8ADF804
:100C00000850ADF804400020ADF80A00ADF8060029
:100C100001A94FF0804001F0C9FC01221146900764
:100C200002F03BF81C208DF8000000208DF8010038
:100C300003208DF8020001208DF80300684600F0C3
:100C40006EFC0121880702F00DF87FBD10B501216F
:100C5000880702F0D0FA18B10121880702F0DCFA07
:100C600010BD30B589B005460C460121084600F09C
:100C7000E8FF0121092000F0D7FF0121234800F0FF
:100C8000E8FD0121224800F0E4FD0121214800F0A7
:100C9000E0FD4FF44060ADF8200018208DF82300EF
:100CA00003208DF8220008A91B4800F001FDADF8D3
:100CB0001850ADF814400020ADF81A00ADF8160039
:100CC00005A94FF0804001F071FC6020ADF80400F0
:100CD0000120ADF806000020ADF80C0001A94FF08E
:100CE000804001F02FFD0821C80602F001F901A99A
:100CF0004FF0804001F071FD0821C80602F001F9B3
:100D00000121880701F0AEFF09B030BD00031800D3
:100D10000002300010001400000C014008B5012151
:100D2000084600F081FF0121584800F092FD0121A2
:100D3000C02000F079FF4FF4A840ADF8000010206B
:100D40008DF8030003208DF802006946504800F03A
:100D5000AFFC4FF480614E4800F059FD4FF4A041C4
:100D60004B4800F052FD0520ADF8000010208DF832
:100D7000030003208DF802006946464800F098FC05
:100D80000521444800F041FD08BD10B500214FF099
:100D9000804002F003FA00214FF0804002F000FA98
:100DA00000203D4908603D49C1F8800110BD012087
:100DB000394908603949C1F88001704710B50446C7
:100DC00021464FF0804002F0E9F921464FF0804083
:100DD00002F0E6F90020304908603049C1F880018E
:100DE00001202D490831086000202C49C1F88801F4
:100DF00010BD10B5044621464FF0804002F0CEF9F8
:100E000021464FF0804002F0CBF9002022490860D3
:100E10002249C1F8800120490831086001201F499A
:100E2000C1F8880110BD10B5044621464FF080403E
:100E300002F0B4F921464FF0804002F0B1F90020F1
:100E4000154908601549C1F8800113490831086047
:100E50001249C1F8880110BD10B5044621464FF073
:100E6000804002F09BF921464FF0804002F098F953
:100E70000020094908600949C1F88001012006499C
:100E8000083108600549C1F8880110BD0002300032
:100E900000180140001C0140B001234200802342A1
:100EA00000B585B00121022000F0CBFE0121082011
:100EB00000F0BAFE0120ADF8100048208DF81300B4
:100EC00004A9644800F0F4FB0121624800F09FFC93
:100ED0000220ADF8100010208DF8130003208DF8CB
:100EE000120004A95B4800F0E3FB0221594800F01E
:100EF0008EFC40F2E730ADF808004720ADF8040062
:100F00000020ADF80A00ADF8060001A9524801F032
:100F10004DFB1D208DF8000001208DF803000220FC
:100F20008DF8010000208DF80200684600F0F7FA05
:100F30000121494802F05CF901221146464801F0BE
:100F4000ACFE0021444801F08DFE05B000BD10B597
:100F50000021414802F01AF900204049088001218F
:100F60003D4801F07FFE10BD10B500213A4801F068
:100F700079FE10BD10B50121374802F03CF940B1AF
:100F80000121354802F048F934480088401C3349B3
:100F9000088010BD10B500BF304800884FF47A714A
:100FA00000FB01F42C4802F014F9044400202A4903
:100FB00024310880322000F074F9204610BD2DE95C
:100FC000F84F4FF0000A0024A346A14631E001206B
:100FD00023490860142000F040F900202149C1F89D
:100FE000840100BF1E48843800680028FAD0FFF74B
:100FF000AEFF641C00BF1A48843800680128FAD08C
:10100000FFF7B2FFFFF7C6FF8246504602F0CEFC64
:10101000009002F01DFC07460022134B02F06CFA10
:10102000054602F037FA83464946584602F03CFC32
:101030008146052CCBD1484602F00AFC0746002227
:101040000A4B02F059FA054602F024FA8346584644
:10105000BDE8F88F000C0140000400401C00002097
:10106000848121420080214200004D400000144054
:101070007FB505460C460121042000F0E2FDADF8E5
:101080000850ADF804400020ADF80A00ADF80600A5
:1010900001A9594801F08AFA01221146564801F087
:1010A000FCFD1E208DF8000000208DF801000420BA
:1010B0008DF8020001208DF80300684600F02FFA39
:1010C00001214D4801F0CEFD7FBD10B501214A48F8
:1010D00002F091F800287DD04848007801287AD1A4
:1010E000474801880088401C454A108064297DDB00
:1010F0000020114608804348007830B1012817D0FD
:10110000022835D0032870D152E03F4800883F497B
:10111000088008460088322804DB3D480078FFF745
:101120004DFE04E0FFF743FE0120364908705CE005
:101130000120FFF778FE374801880088401C354AB7
:101140001080032913DB002011460880FFF72FFED3
:101150002D4800883049088008460088322803DD81
:1011600000202849087002E00220264908703CE06F
:101170000120FFF771FE294801880088401C274A9A
:101180001080052913DB002011460880FFF70FFEB1
:101190001D4800882249088008460088322803DD5F
:1011A00000201849087002E00320164908701CE06E
:1011B0001B480088322817DA17480088322813DACB
:1011C00013480078FFF715FE164801880088401C78
:1011D000144A01E00EE009E01080032904DBFFF768
:1011E000E6FD00200749087000BF00BF012102484A
:1011F00002F012F810BD00000008004001000020BD
:101200002400002002000020040000202000002014
:1012100000000020280000201E0000202A000020DE
:10122000220000202C00002010B56FF0040000F018
:10123000C0F92E4800682E49B0FBF1F02D49087026
:101240000846007800EB4001C1EBC0104FF6FF717B
:1012500001EAC0002849088010BD0146254A1278DD
:101260004A434FF0E0235A6100229A611A461269FC
:1012700042F001021A6100BF4FF0E022106900F055
:1012800001021AB100F48032002AF5D04FF0E022BA
:10129000126922F001024FF0E0231A6100229A61E4
:1012A00070470146144A12884A434FF0E0235A61BE
:1012B00000229A611A46126942F001021A6100BFC7
:1012C0004FF0E022106900F001021AB100F4803200
:1012D000002AF5D04FF0E022126922F001024FF00F
:1012E000E0231A6100229A61704700000800002084
:1012F00000127A002E0000203000002000BF70474E
:1013000000BF6F4A128802F04002002AF9D0C2B230
:101310006B4B1B1D1A80704710B586B00446012127
:1013200044F2040000F080FC4FF40070ADF81400AB
:1013300003208DF8160018208DF8170005A96148C4
:1013400000F0B6F94FF48060ADF8140004208DF879
:10135000170005A95B4800F0ABF925208DF80000C7
:1013600002208DF8010003208DF8020001208DF885
:101370000300684600F0D3F801940020ADF808009F
:10138000ADF80A00ADF80C00ADF810000C20ADF877
:101390000E0001A94A4800F074FE012240F22551D6
:1013A000474800F006FF0121454800F0F6FE06B070
:1013B00010BD10B586B004460121042000F034FCB5
:1013C0000121480400F03DFC0420ADF81400032086
:1013D0008DF8160018208DF8170005A9394800F07F
:1013E00067F90820ADF8140004208DF8170005A94E
:1013F000344800F05DF903208DF801008DF80200FB
:1014000001208DF80300684600F089F8019400205F
:10141000ADF80800ADF80A00ADF80C00ADF810000A
:101420000C20ADF80E0001A9274800F02AFE012289
:1014300040F22551244800F0BCFE0121224800F072
:10144000ACFE06B010BD10B540F225511C4800F0AE
:1014500095FF10B31A4800F011FFC4B21B48008872
:1014600000F40040C8B91948008800F4804060B119
:101470000A2C03D000201549088020E0134800887A
:1014800040F400401149088019E00D2C06D10F48A6
:10149000008840F480400D49088010E00B48008827
:1014A000C0F30D000A490C5408480088401C074945
:1014B000088008460088C72801DD0020088010BD8C
:1014C000003801400008014000440040380000207E
:1014D000540000200948804709480047FEE7FEE71E
:1014E000FEE7FEE7FEE7FEE7FEE7FEE7FEE7FEE7D4
:1014F00004480549054A064B704700006B06000882
:1015000031010008800100208007002080030020B6
:101510008003002031490143314A1160704770B5A2
:10152000002100230F22C47804B32D4C246804F456
:10153000E064C4F5E064210AC1F10403CA404478C0
:1015400004FA03F18478144021430901254C0678FC
:10155000A155047804F01F050124AC4005786D11F5
:10156000AD0005F1E025C5F8004109E0047804F07C
:101570001F050124AC401C4D0678761145F8264025
:1015800070BD1A4A0A400243154B1B1F1A60704770
:1015900039B1134A121D12680243114B1B1D1A6008
:1015A00006E00F4A121D126882430D4B1B1D1A6084
:1015B0007047042808D14FF0E021096941F0040187
:1015C0004FF0E022116107E04FF0E021096921F0BE
:1015D00004014FF0E0221161704700000000FA059D
:1015E0000CED00E000E400E080E100E080FFFF1F80
:1015F00010B50446CC48844208D10121042000F0F3
:101600002DFB0021042000F029FB46E0C74884425E
:1016100008D10121082000F021FB0021082000F062
:101620001DFB3AE0C248844208D10121102000F09D
:1016300015FB0021102000F011FB2EE0BD48844274
:1016400008D10121202000F009FB0021202000F01A
:1016500005FB22E0B848844208D10121402000F077
:10166000FDFA0021402000F0F9FA16E0B348844268
:1016700008D10121802000F0F1FA0021802000F043
:10168000EDFA0AE0AE48844207D10121801500F04E
:10169000E5FA0021A01500F0E1FA10BD10B5012116
:1016A000084600F0DBFA0021012000F0D7FA10BD57
:1016B0002DE9F041024600250026002000230024E9
:1016C000002791F803C00CF00F0591F803C00CF04F
:1016D000100CBCF1000F03D091F802C04CEA0505D4
:1016E00091F800C0BCF1000F31D0146800202BE04D
:1016F0004FF0010C0CFA00F3B1F800C00CEA03063D
:101700009E4220D183004FF00F0C0CFA03F7BC432C
:1017100005FA03FC4CEA040491F803C0BCF1280F5D
:1017200006D14FF0010C0CFA00FCC2F814C00AE01C
:1017300091F803C0BCF1480F05D14FF0010C0CFA31
:1017400000FCC2F810C0401C0828D1D31460B1F8C6
:1017500000C0BCF1FF0F34DD546800202EE000F122
:10176000080C4FF0010808FA0CF3B1F800C00CEABD
:1017700003069E4221D183004FF00F0C0CFA03F7B1
:10178000BC4305FA03FC4CEA040491F803C0BCF125
:10179000280F05D100F1080C08FA0CF8C2F81480E3
:1017A00091F803C0BCF1480F07D100F1080C4FF0CD
:1017B000010808FA0CF8C2F81080401C0828CED3A3
:1017C0005460BDE8F0814FF6FF7101800221817005
:1017D0000421C17070470246002093680B400BB192
:1017E000012000E0002070470146886880B2704701
:1017F00002460020D3680B400BB1012000E000201E
:1018000070470146C86880B2704701617047416106
:1018100070470AB1016100E041617047C1607047E3
:101820004FF480320A4382618161826182698269F8
:10183000704702460020434B18684FF680731840EB
:1018400040EA021008433F4B186070473E49C861A8
:101850007047F0B50A46002300240021002500F05F
:101860000046B6F1004F02D1364EF16901E0354E27
:101870007168C0F3034583B200F44016B6F5401F0B
:1018800008D121F070612F4E766826F070662D4FDA
:101890007E6012E000F48016B6F5801F06D10326A4
:1018A00006FA05F4A14341F0706106E0460D3601E9
:1018B00003FA06F6B14341F0706122B1460D3601DC
:1018C00003FA06F6314300F00046B6F1004F02D1AC
:1018D0001C4EF16101E01B4E7160F0BD30B500227D
:1018E0008B071C0F0F2303FA04F2164B08338C10DE
:1018F00053F824309343134C08348D1044F82530AA
:1019000023468C1053F824308C07240F00FA04F47B
:1019100023430C4C08348D1044F8253030BD0A495F
:10192000DC3108607047000000080140000C0140F5
:10193000001001400014014000180140001C01404B
:10194000002001400000014000002042DF48006804
:1019500040F00100DD49086008464068DC49084065
:10196000DA49486008460068DA490840D749086003
:101970000846006820F4802008600846406820F48B
:10198000FE0048604FF41F0088607047CF49096827
:1019900021F48031CD4A11601146096821F480217B
:1019A0001160B0F5803F03D0B0F5802F0ED106E076
:1019B000C649096841F48031C44A116007E0C3494F
:1019C000096841F4A021C14A116000E000BF00BFD6
:1019D000704710B501460022002300204A11012A59
:1019E00002D1BA4C236806E0022A02D1B74C236A1E
:1019F00001E0B64C636A01F01F02012494401C40D0
:101A00000CB1012000E0002010BD38B5002000908E
:101A10000024002500BF3120FFF7DBFF05460098BA
:101A2000401C00900098B0F5A06F01D0002DF2D0BE
:101A30003120FFF7CEFF08B1012400E0002420464A
:101A400038BD01460020A14A106820F0F80040EAA5
:101A5000C10010607047A04908607047024600202E
:101A60009A4B586820F47C1042EA01031843974BC4
:101A70005860704798490866704701460020934AAD
:101A8000506820F003000843506070478F4840685A
:101A900000F00C007047014600208C4A506820F08E
:101AA000F00008435060704701460020874A5068A4
:101AB00020F4E06008435060704701460020834AEC
:101AC000506820F4605040EAC1005060704729B16E
:101AD0007E4A527A02437D4B5A7204E07B4A527A24
:101AE00082437A4B5A7270477B49D83108607047FD
:101AF00001460020754A506820F440400843506079
:101B000070470021714A20321170704A82F820100B
:101B1000012802D004280AD104E001216B4A2032B6
:101B2000117005E00521694A2032117000E000BF04
:101B300000BF70476949086070476449096A0143FA
:101B4000624A11627047654944390860704730B590
:101B500000210022002400235C4D6D6805F00C017B
:101B600021B1042905D0082923D105E05C4D056089
:101B700022E05B4D05601FE0544D6D6805F4701266
:101B8000524D6D6805F48034022505EB92421CB974
:101B9000544D554305600BE04C4D6D6805F4003520
:101BA0001DB1504D5543056002E04D4D5543056054
:101BB00002E04B4D056000BF00BF444D6D6805F06D
:101BC000F0010909484D6B5C0568DD4045603F4DFB
:101BD0006D6805F4E061090A434D6B5C4568DD40C2
:101BE00085603A4D6D6805F46051C90A3E4D6B5CE5
:101BF0004568DD40C560354D6D6805F44041890B91
:101C00003A4D6B5CC568B5FBF3F5056130BD29B194
:101C10002E4A526902432D4B5A6104E02B4A526905
:101C200082432A4B5A61704729B1284A926902437C
:101C3000264B9A6104E0254A92698243234B9A61BC
:101C4000704729B1214AD2690243204BDA6104E08E
:101C50001E4AD26982431D4BDA61704729B11B4A83
:101C6000D2680243194BDA6004E0184AD268824312
:101C7000164BDA60704729B1144A12690243134BBC
:101C80001A6104E0114A12698243104B1A617047CD
:101C900012494039086070470F49C86470470B49C2
:101CA000C87170470948406A40F08070074948622F
:101CB000704701460020054A92680A400AB1012097
:101CC00000E0002070470149887270470010024010
:101CD0000000FFF8FFFFF6FE00004242800442428F
:101CE00000127A0000093D00400000205000002052
:101CF00010B50446BE48844208D101218014FFF784
:101D0000ADFF0021A014FFF7A9FF16E0B9488442F7
:101D100008D101210014FFF7AEFF00212014FFF7C6
:101D2000AAFF0AE0B448844207D10121C013FFF79B
:101D3000A2FF0021E013FFF79EFF10BD10B50022A7
:101D4000028802F441520B884C8823438C88234339
:101D5000CC8823430C8923434C8923438C89234318
:101D6000CC8923431A430280838B4FF2FF742340B4
:101D700083830B8A038210BD2DE9F04F85B00546A1
:101D80000C464FF0000902274FF000084FF0010BFE
:101D90000026B246A88B4FF240010840A8830220DB
:101DA0002884B5F81C90A068022801D100BF38E053
:101DB000A08810B94FF0010B01E04FF0020B8D48E5
:101DC000854200D100E000BF6846FFF7C0FEDDF8A5
:101DD00000A0E088B0F5007F0AD14FEA1A2000EB9E
:101DE00080004000A168B0FBF1F0401D86B20BE01E
:101DF0004FEA4B10BAFBF0F000EB80004000A16806
:101E0000B0FBF1F0401D86B20A20B6FBF0F606F0FA
:101E10000108A6EB0800C0F34F074FF6FF7000EA79
:101E20000828022F01DBFF2F02DD02274FF00008F8
:101E3000E08840EA080038432884A088A189084344
:101E4000618808432188084340F4006040EA09099A
:101E5000A5F81C9005B0BDE8F08F002101804180FD
:101E60008180C180018141818181C18107210182FD
:101E700070470021018041808180C1800221816002
:101E800000218181704721B1028842F04002028026
:101E900004E002884FF6BF731A400280704721B1F8
:101EA000828B42F48062828304E0828B4FF6FF33A0
:101EB0001A408283704730B5002400230C1101259D
:101EC000A540ABB21AB185881D43858002E08588A4
:101ED0009D43858030BD1AB183880B43838002E027
:101EE00083888B438380704781817047014688894E
:101EF00070474FF6FF62914204D0028842F480722C
:101F0000028004E002884FF6FF631A4002807047A7
:101F100021B1828842F00402828004E082884FF678
:101F2000FB731A408280704702884FF2FF731A4099
:101F3000028002880A4302807047018841F4805180
:101F40000180704721B1028842F40052028004E00F
:101F500002884DF6FF731A40028070470246002047
:101F6000012901D0108B00E0908A70470146088A51
:101F70007047B1F5804F04D1028842F4804202805C
:101F800004E002884BF6FF731A4002807047024655
:101F9000002013890B400BB1012000E000207047A6
:101FA000CA4302817047F0B5024600200024002396
:101FB000002501F00F070126BE40B4B20B11012627
:101FC0009E40B3B2968806EA03051689264016B1EC
:101FD0000DB1012000E00020F0BD10B5002201F09D
:101FE0000F040123A3409AB2D343038110BD000024
:101FF0000030014000380040003C004010B504466D
:10200000FB48844209D101218803FFF727FE002104
:102010004FF48040FFF722FE32E0F648844209D1B7
:1020200001214804FFF727FE00214FF40030FFF79D
:1020300022FE25E0F048844209D101218804FFF7FF
:102040001AFE00214FF48020FFF715FE18E0EB4840
:10205000844209D10121C804FFF70DFE00214FF48D
:102060000020FFF708FE0BE0E548844208D101217B
:102070000805FFF700FE00214FF48010FFF7FBFD7D
:1020800010BD2DE9F04786B005460E460024A24655
:1020900000BFA1460027B08900B100BF2F462C8A9F
:1020A0004CF6FF700440F08804432C82AC894EF655
:1020B000F3100440B0883189084371890843044310
:1020C000AC81AC8A4FF6FF400440B0890443AC8237
:1020D00001A8FFF73CFDC648874202D1DDF810A0F9
:1020E00001E0DDF80CA0A88900F4004040B10AEB43
:1020F000CA0000EB0A1031684900B0FBF1F807E0B4
:102100000AEBCA0000EB0A1031688900B0FBF1F855
:102110006420B8FBF0F004012009642101FB108960
:10212000A88900F4004040B1322000EBC900B0FBA8
:10213000F1F000F00700044308E0322000EB091042
:102140006421B0FBF1F000F00F0004432C8106B0D5
:10215000BDE8F0874FF41651016000218180C180F5
:1021600001810C21418100218181704710B5024617
:102170000020108A4FF2FF0318400B884C8823433D
:102180008C882343CC8823431843108210BD002140
:10219000018041808180C180704721B1828942F4F1
:1021A0000052828104E082894DF6FF731A408281D9
:1021B0007047F0B50346002400260025002040F6B5
:1021C0006A17B94200D100BF1846C1F3421401F0AA
:1021D0001F06012707FA06F5012C01D10C3004E097
:1021E000022C01D1103000E014301AB107682F43DF
:1021F000076002E00768AF430760F0BD1AB1838A49
:102200000B43838202E0838A8B4383827047028A76
:102210004FF6F0731A400282028A0A430282704724
:1022200082894FF2FF731A40828182890A43828138
:10223000704721B1828942F00202828104E08289E2
:102240004FF6FD731A4082817047028A4FF6DF73A2
:102250001A400282028A0A430282704721B1028A2E
:1022600042F48042028204E0028A4BF6FF731A4075
:1022700002827047C1F30802828070470146888855
:10228000C0F308007047818941F0010181817047E6
:10229000028BD2B20283028B42EA01220283704790
:1022A000028B02F47F420283028B0A43028370474F
:1022B00021B1828A42F02002828204E0828A4FF6B3
:1022C000DF731A408282704721B1828A42F0100285
:1022D000828204E0828A4FF6EF731A40828270474E
:1022E00021B1828A42F00802828204E0828A4FF69B
:1022F000F7731A408282704721B1828942F400420A
:10230000828103E08289C2F30E028281704721B18B
:10231000828A42F40062828204E0828A4FF2FF7372
:102320001A4082827047828A4FF6FB731A4082827B
:10233000828A0A438282704721B1828A42F0020275
:10234000828204E0828A4FF6FD731A4082827047CF
:1023500002460020B1F5007F00D100BF13880B407A
:102360000BB1012000E00020704701F40072B2F5CB
:10237000007F00D100BFCA430280704770B502469B
:10238000002400230025002040F66A16B14200D147
:1023900000BFC1F3421501F01F03012606FA03F343
:1023A000012D02D19689334006E0022D02D1168A12
:1023B000334001E0968A33400C12012606FA04F4F9
:1023C0001688344013B10CB1012000E0002070BD2C
:1023D00010B50022002340F66A14A14200D100BFCC
:1023E0000A1201249440A3B2DC43048010BD000013
:1023F000003801400044004000480040004C0040CC
:102400000050004010B50446FE48844208D1012126
:10241000C014FFF723FC0021E014FFF71FFCC4E009
:10242000B4F1804F08D101210846FFF724FC0021B8
:102430000120FFF720FCB8E0F348844208D10121D5
:102440000220FFF718FC00210220FFF714FCACE08B
:10245000EE48844208D101210420FFF70CFC002142
:102460000420FFF708FCA0E0E948844208D10121DC
:102470000820FFF700FC00210820FFF7FCFB94E098
:10248000E448844208D101211020FFF7F4FB002129
:102490001020FFF7F0FB88E0DF48844208D10121DB
:1024A0002020FFF7E8FB00212020FFF7E4FB7CE081
:1024B000DA48844208D101214014FFF7CFFB002104
:1024C0006014FFF7CBFB70E0D548844209D10121AD
:1024D000C804FFF7C3FB00214FF40020FFF7BEFB49
:1024E00063E0D048844209D101210805FFF7B6FB1B
:1024F00000214FF48010FFF7B1FB56E0CA48844238
:1025000009D101214805FFF7A9FB00214FF4001074
:10251000FFF7A4FB49E0C548844208D101214020CF
:10252000FFF7A9FB00214020FFF7A5FB3DE0C048D5
:10253000844208D101218020FFF79DFB00218020EB
:10254000FFF799FB31E0BB48844208D10121801597
:10255000FFF791FB0021A015FFF78DFB25E0B648A2
:10256000844209D101210804FFF778FB00214FF4D0
:102570008030FFF773FB18E0B048844209D1012195
:102580004804FFF76BFB00214FF40030FFF766FBB8
:102590000BE0AB48844208D101218804FFF75EFBC1
:1025A00000214FF48020FFF759FB10BD0022028864
:1025B000944B98420ED0994B98420BD0B0F1804F7B
:1025C00008D0914B984205D0904B984202D0904B46
:1025D000984204D14FF68F731A404B881A438D4BA3
:1025E000984207D08C4B984204D04FF6FF431A40D4
:1025F000CB881A4302808B8883850B880385814BA7
:1026000098420BD0854B984208D08B4B984205D00E
:102610008A4B984202D08A4B984201D10B7A0386AA
:1026200001238382704770B5002400220023058CAB
:102630004FF6FE7635400584028C8388048B4FF676
:102640008F752C40B51E2C400D882C43751E2A40DA
:102650000D892A434D882A436A4DA8420BD06F4DFD
:10266000A84208D0744DA84205D0744DA84202D0AB
:10267000734DA84213D14FF6F7752A404D892A436E
:102680004FF6FB752A408D882A434FF6FF652B4095
:102690004FF6FF552B408D892B43CD892B438380EB
:1026A0000483CD888586028470BD70B50024002225
:1026B0000023058C4FF6EF7635400584028C838825
:1026C000048B48F6FF752C404FF6FF452C400D88D3
:1026D0004FF6FF7606EA05252C434FF6DF752A40B4
:1026E0000D8906EA05152A434D8806EA05152A4391
:1026F000444DA84202D0494DA8421DD14FF67F75E6
:102700002A404D894FF6FF7606EA05152A434FF613
:10271000BF752A408D8806EA05152A434FF6FF3516
:102720002B404FF2FF752B408D8906EA85052B4320
:10273000CD8906EA85052B4383800483CD880587F0
:10274000028470BD70B5002400220023058C4FF672
:10275000FF6635400584028C8388848B4FF68F7525
:102760002C404FF6FC752C400D882C434FF6FF553E
:102770002A400D894FF6FF7606EA05252A434D8843
:1027800006EA05252A431F4DA84202D0234DA84240
:102790001DD14FF2FF752A404D894FF6FF7606EAAC
:1027A00005252A434FF6FF352A408D8806EA052580
:1027B0002A434EF6FF752B404DF6FF752B408D8951
:1027C00006EA05152B43CD8906EA05152B438380C0
:1027D0008483CD888587028470BD70B50022002374
:1027E0000024058C4EF6FF7635400584038C8488E2
:1027F000828B48F6FF752A404FF6FF452A400D8828
:1028000020E00000002C01400004004000080040CF
:10281000000C004000100040001400400034014053
:10282000004C01400050014000540140001800409D
:10283000001C0040002000400040014000440140D6
:10284000004801404FF6FF7606EA05252A434DF67B
:10285000FF752B400D8906EA05352B434D8806EAA6
:1028600005352B43FA4DA84202D0FA4DA84208D1B3
:102870004BF6FF752C408D894FF6FF7606EA8515DD
:102880002C4384808283CD88A0F84050038470BD9F
:10289000828B4FF2FF331A408283828B4FF6FF7395
:1028A00003EA01231A4382837047F0B50C461546AC
:1028B000002200210026078C4EF6FF7C07EA0C0759
:1028C0000784828B018C4FF6FF7707EA043640F6C7
:1028D000FF473A404FF6FF7707EA05273A434FF69E
:1028E000FF7707EA03373A43D94FB8420ED0D94FA2
:1028F000B8420BD0B0F1804F08D0D74FB84205D0C6
:10290000D64FB84202D0D64FB84206D14DF6FF7727
:10291000394046F48057394305E047F6FF573940C0
:1029200044F48057394382830184F0BD828B4FF693
:10293000F3731A408283828B0A4382837047F0B517
:102940000C461546002200210026078C4FF6FF6C2E
:1029500007EA0C070784828B018C4FF6FF7707EAA2
:1029600004264FF60C773A404FF6FF7707EA031735
:102970002F433A43B64FB8420ED0B64FB8420BD0B1
:10298000B0F1804F08D0B44FB84205D0B34FB84231
:1029900002D0B34FB84206D14FF6FF57394046F444
:1029A0008077394305E04FF2FF57394044F4807790
:1029B000394382830184F0BD028B4FF2FF331A400A
:1029C0000283028B4FF6FF7303EA01231A4302834B
:1029D0007047F0B50C461546002200210026078CF2
:1029E0004FF6EF7C07EA0C070784028B018C4FF649
:1029F000FF7707EA041640F6FF473A404FF6FF77A5
:102A000007EA03373A434FF6FF7707EA05273A43C9
:102A10008F4FB8420ED08F4FB8420BD0B0F1804FDD
:102A200008D08D4FB84205D08C4FB84202D08C4FA1
:102A3000B84206D14FF6DF77394046F010073943E8
:102A400005E04FF65F77394044F0100739430283C1
:102A50000184F0BD028B4FF6F3731A400283028BA0
:102A60000A4302837047F0B50C4615460022002148
:102A7000068C4FF6FE773E400684028B018C4FF6A3
:102A80000C7632407E1C06EA03162E433243704E0B
:102A9000B0420ED06F4EB0420BD0B0F1804F08D094
:102AA0006D4EB04205D06D4EB04202D06C4EB04279
:102AB00006D14FF6FD76314044F00106314305E082
:102AC0004FF6F576314044F001063143028301842C
:102AD000F0BD70B505460C465D4885420ED05D4898
:102AE00085420BD0B5F1804F08D05B48854205D0B8
:102AF0005A48854202D05A48854200D100E000BFC2
:102B0000208850B92389A28861882846FFF7ABFF47
:102B1000E1882846FFF79EFF25E0208804280AD197
:102B20002389A28861882846FFF753FFE188284659
:102B3000FFF742FF17E0208808280AD12389A288DE
:102B400061882846FFF7FBFEE1882846FFF7EEFE86
:102B500009E02389A28861882846FFF7A6FEE1885C
:102B60002846FFF795FE70BD2DE9F04105460C465D
:102B700000260127608808B9022600E00026A08808
:102B8000012801D1022700E001272088A0B923896C
:102B9000A28861882846FFF766FFE1882846FFF78C
:102BA00059FF23893A4631462846FFF712FFE1884C
:102BB0002846FFF701FF13E02389A2886188284691
:102BC000FFF707FFE1882846FFF7F6FE23893A461C
:102BD00031462846FFF747FFE1882846FFF73AFFCE
:102BE000BDE8F0810A884B881A438B881A43CB884A
:102BF0001A430B891A434B891A438B891A43A0F84D
:102C0000442070474FF6FF71818000210180C18010
:102C10004180017270470021018041808180C18024
:102C2000018141818181C181704700210180418002
:102C3000012181800021C180018170470021018034
:102C400041808180C1800181418181817047000084
:102C5000002C014000340140000400400008004006
:102C6000000C004021B1028842F00102028004E021
:102C700002884FF6FE731A400280704731B1B0F8F7
:102C8000442042F40042A0F8442005E0B0F844207B
:102C9000C2F30E02A0F8442070471AB183890B4397
:102CA000838102E083898B438381704781827047EF
:102CB00041EA0203A0F8483070471AB183890B43F8
:102CC000838102E083898B438381704701894FF6BA
:102CD000F8721140018170470A46002101894FF6C0
:102CE0008F73194011430181704730B504460D467A
:102CF00029462046FFF7F0FF208940F00700208199
:102D000030BD2DE9F04104460D4616461F46602DA4
:102D100006D13B46012231462046FFF75AFE05E028
:102D20003B46012231462046FFF79DFE29462046BC
:102D3000FFF7D2FF208940F007002081BDE8F08135
:102D400030B50C4600210189C9B24FF6FF7505EA7E
:102D50000325154325432943018130BD2DE9F04169
:102D600005460E4617469846002443463A463146E5
:102D70002846FFF7E5FF2C894FF6F870044044F031
:102D800007044FF68F70044044F070042C81BDE8B6
:102D9000F081F0B504460D4616461F463B463246C6
:102DA00029462046FFF7CCFF208940F4804020814F
:102DB000F0BD0185828270470A46002101884FF6E6
:102DC0008F731940114301807047F0B50C461546CA
:102DD0001E460021002200230189028B038C4FF63E
:102DE000F877394021434FF6FC473A4040F201174B
:102DF0003A434FF6DD773B404FF6FF7707EA061779
:102E00002F433B43018102830384F0BD0A46002126
:102E1000018B4FF68F7319401143018370470A46A7
:102E20000021018B48F6FF7319404FF6FF7303EA48
:102E300002231943018370470A460021818B4FF614
:102E40008F7319401143818370470A460021818B9B
:102E500048F6FF7319404FF6FF7303EA0223194344
:102E60008183704721B1028842F08002028004E031
:102E700002884FF67F731A400280704721B1828822
:102E800042F00402828004E082884FF6FB731A400D
:102E90008280704721B1828842F00802828004E07B
:102EA00082884FF6F7731A408280704721B182887A
:102EB00042F00102828004E082884FF6FE731A40DD
:102EC000828070470A460021018B4FF6F773194044
:102ED0001143018370470A460021018B4FF2FF73B3
:102EE00019404FF6FF7303EA022319430183704729
:102EF0000A460021818B4FF6F773194011438183F5
:102F000070470A460021818B4FF2FF7319404FF63C
:102F1000FF7303EA02231943818370470A460021A5
:102F2000018B4FF6FB7319401143018370470A462A
:102F30000021018B4FF6FF3319404FF6FF7303EA70
:102F400002231943018370470A460021818B4FF603
:102F5000FB7319401143818370470A460021818B1E
:102F60004FF6FF3319404FF6FF7303EA022319436C
:102F7000818370470A460021018B4FF67F73194009
:102F80001143018370470A460021018BC1F30E01F2
:102F90004FF6FF7303EA02231943018370470A4681
:102FA0000021818B4FF67F73194011438183704755
:102FB0000A460021818BC1F30E014FF6FF7303EA2D
:102FC00002231943818370470A460021018C4FF682
:102FD000FD7319401143018470470A460021018C9A
:102FE0004FF6F77319401143018470470A460021D8
:102FF000018C4FF6DF7319404FF6FF7303EA02139B
:103000001943018470470A460021018C4FF67F73F3
:1030100019404FF6FF7303EA021319430184704706
:103020000A460021018C4FF6FF5319404FF6FF73FB
:1030300003EA02231943018470470A460021018CE8
:103040004FF2FF7319404FF6FF7303EA022319434F
:10305000018470470A460021018C4DF6FF73194028
:103060004FF6FF7303EA023319430184704730B50A
:10307000002301248C40A3B2048C9C430484048C60
:1030800002FA01F5ADB22C43048430BD30B5002303
:1030900004248C40A3B2048C9C430484048C02FA64
:1030A00001F5ADB22C43048430BD70B50346002059
:1030B00000241846183001258D40ACB21D8CA54364
:1030C0001D8409B1082909D100EB6100056825F0CC
:1030D000700505600568154305600EE00D1FC5F31A
:1030E0004E052844056825F4E045056005684FF65F
:1030F000FF7606EA02263543056070BD21B10288DD
:1031000042F00202028004E002884FF6FD731A408A
:103110000280704721B1028842F00402028004E07C
:1031200002884FF6FB731A400280704721B18288F3
:1031300042F08002828004E082884FF67F731A405A
:103140008280704702884FF6F7731A400280028827
:103150000A430280704782884FF68F731A4082803C
:1031600082880A438280704702894FF6F8731A40BA
:10317000028102890A430281704702894FF67F73F8
:103180001A40028102890A43028170478184704794
:1031900081857047818670470187704781877047B6
:1031A000A0F84010704702884FF6FF431A40028093
:1031B00002880A43028070470146888E70470146A4
:1031C000088F70470146888F70470146B1F840006C
:1031D00070470146888C70470146088D704702464B
:1031E0000020138A0B400BB1012000E00020704743
:1031F000CA430282704730B50246002000230024F3
:10320000158A05EA0103958905EA010413B10CB199
:10321000012000E0002030BDCA43028270477047A1
:103220000FB4044910B503AA029800F0D3F810BCFB
:103230005DF814FB340000202DE9F0410E460446F1
:10324000002020622046E168884730B3252805D059
:10325000D4E901219047206A401CF2E7E16820464A
:1032600000278847050018D0A5F14100192802D889
:1032700020354FF400673246294620462760FCF788
:1032800091FF40B1012804D0F61D26F0070608364C
:10329000D8E7361DD6E72846DAE7206ABDE8F08190
:1032A0002DE9F0410646002410687529314616A51F
:1032B00010D0AFF30080002802DA404213A507E0E7
:1032C00031688A0701D512A502E0490704D511A586
:1032D000012401E0AFF3008000210A2206F1240757
:1032E00009E0B0FBF2FCB0FBF2F302FB1C00303053
:1032F00078541846491C0028F3D123462A46304604
:10330000BDE8F04100F00CB8000000002D00000006
:103310002B00000020000000704770477047704786
:103320002DE9F0470D4699469246044600F12408DF
:103330000168880604D5E06921F01001216000E0F1
:103340000120A84201DD471B00E00027A1697A198E
:1033500002EB0900081AA0612078C00602D42046BA
:10336000AFF30080002608E0D4E901211AF8060036
:103370009047206A401C761C20624E45F4DB207882
:10338000C0060AD52046AFF3008006E0D4E901214B
:1033900030209047206A401C2062381EA7F10107A8
:1033A000F4DC07E0D4E9012118F805009047206A11
:1033B000401C2062281EA5F10105F3DC2046AFF376
:1033C00000802078000602D50220BDE8F0870120A9
:1033D000FBE70000074B70B50D467B4400F011F889
:1033E0000446284600F020F810B14FF0FF3070BDC1
:1033F000204670BD23DFFFFF01694A1C0261087887
:10340000704700B58FB0CDE9013100210591054924
:103410007944CDE9031011466846FFF70DFF0FB060
:1034200000BD0000E5FFFFFF007B00F0800070475B
:10343000754600F02BF8AE4605006946534620F06D
:103440000700854618B020B5FEF752F8BDE82040C9
:103450004FF000064FF000074FF000084FF0000B50
:1034600021F00701AC46ACE8C009ACE8C009ACE803
:10347000C009ACE8C0098D46704710B50446AFF3EB
:1034800000802046BDE81040FCF79EBE0048704713
:103490001C01002021F00042A2F16052B2F5801F11
:1034A00001F0004328BFD2F17F6C0BD95FEA001C0A
:1034B00043EAC20242EB507018BF704728BF20F0A9
:1034C00001007047B2F5801FBCBF184670474FEA35
:1034D000410C1CF5001F02D2084600F0C0BA70B5BE
:1034E00000F062F900000089FFF7F6BF4FF00040DE
:1034F000A0F58000704700002DE9C04130B4DFF82E
:10350000A0C23CEA111418BF3CEA131400F0EC808E
:1035100081EA03051CEA111444EAD57418BF1CEAB9
:10352000131500F0C780A4EB05044FF0004545EAF1
:10353000C12145EAC32341EA505143EA525304F101
:103540007F74994204F500344FEAC0204FEAC2224A
:1035500008BF904200F09C804FEA13650FF24016BE
:10356000765D4FEA134506FB05F7C7F1807706FB4A
:1035700007F74FEAD737A7FB03687642C8F58038CC
:10358000A7FB06CE38BFA8F1010807FB08E64FF0FD
:10359000000EA6FB028CE6FB03CEDCF1000CCEF1A4
:1035A000004E38BFAEF1010EA6FB0C584FF00007DD
:1035B0004FF00005E6FB0E87A1FB08C6A0FB07CE77
:1035C00016EB0E0645F10005E1FB076515F1E04E2F
:1035D0007EBFA4F580345FEA46066D4116F1800790
:1035E00045F100054FEA17274FEA066647EA0567E7
:1035F000A6F1DE46B6F1805F4FEA15251FD93846A1
:1036000024F0010C05EBC471BCF1FE6F01EB0C1151
:1036100002D8F0BCBDE8008124425CBF01F5801EE9
:103620009EEAC47F02D4F0BCBDE80081244238D4B5
:10363000F0BCA1F1C041BDE8004100F003B94FEA80
:10364000D22242EA43524FEAD323A7FB02864FEA33
:10365000D02040EA415007FB03661EEA0E0F4FEAF6
:10366000D12105FB026658BFA6EB0056B6EB00560B
:103670004FEA520E4EEAC37E18EB0E0E56EB530E77
:10368000BDD518EB02085E417F1C55F10005B6E779
:103690004FF480154FF000074FF000064FF0000880
:1036A000ADE7F0BC4FF0000001F1C04101F0004176
:1036B000BDE8008111EA0C1F0CEA131500D00CE0E4
:1036C00013EA0C1F00F025804FF00000F0BC81EAE7
:1036D000030101F00041BDE80081F0BCBDE80041FC
:1036E00081EA030100F0AEB8F0BCBDE8004170B55E
:1036F00000F05AF8097EFC3E00F007B881EA0301A9
:103700004FF0000001F00041704781EA030100F032
:1037100099B8F0BCBDE800414FF000002149704766
:10372000FFFDFBF9F7F5F4F2F0EEEDEBE9E8E6E486
:10373000E3E1E0DEDDDBDAD8D7D5D4D3D1D0CFCD0D
:10374000CCCBCAC8C7C6C5C4C2C1C0BFBEBDBCBB46
:10375000BAB9B8B7B6B5B4B3B2B1B0AFAEADACAB41
:10376000AAA9A8A8A7A6A5A4A3A3A2A1A09F9F9E1B
:103770009D9C9C9B9A9999989797969595949393CD
:10378000929191908F8F8E8E8D8C8C8B8B8A898964
:1037900088888787868585848483838282818180E7
:1037A0000000FF070000F87F0EF1020E2EF0030E5E
:1037B0005EF8046B364205D4012A43EB030515F588
:1037C000001F12D8012841EB010C1CF5001F0CD87A
:1037D0000ED14FEAD17C15F5001F0CEB4C0C0CF10F
:1037E000020C08BF4CEBD37C04E04FF0080C01E066
:1037F0004FEAD37C0CEB4C0526FA05F606F00706DB
:10380000B6F1040C06D20EEB860CBDE870404CF00D
:10381000010C6047DFE80CF0090B02024FF0004199
:103820004FF00000A1F5002170BD19461046012897
:1038300051EB010418BFD4F5001484BF002001F03F
:10384000004170BD0808A0F500114FEA3101704732
:1038500043004FEAD30C4FEA3C0C43401FBF4007E4
:103860000CF1605113F0FE4F70471CF0006F03D154
:1038700000200CF0004170470CF0004343EA507008
:1038800010B540EACC0000F0A4F800BF00000092A0
:103890004FEA0001FFF7D6BF4FF000414FF00000A4
:1038A000A1F500217047000090EA010F48BF81F0A8
:1038B000004100F1E080421A3CBF801A89184FEAAB
:1038C000D0524FF07F4C1CEA410FA2EBD15318BFEE
:1038D0009CEA026F00F03B804FF0004C4CEA002065
:1038E0004CEA012121FA03FC10EB0C0C1ED202F170
:1038F000FF325FEA1C2040EBC25038BF70471CF01B
:103900007F0F4FEA400C18BFBCF17F4F38BF7047A4
:10391000C3F12003994008BF20F00100BCF17F4FA4
:1039200038BF7047A0F1C04000F099B84FEA3C00A2
:10393000000A40EBC25028BF1CF0FF0F4FEA400CBA
:10394000E6D018BFBCF17F4F38BF7047EAE79CEA6A
:10395000026F05D010EA5C0F08BF00F0004070470E
:1039600010B500F036F800BF64FBBE3EC10DD1F1CA
:103970009E0206DB4FEA002343F0004323FA02F0E5
:103980007047004207D54FEA4001B1F1FE4F02D225
:103990004FF00000704710B500F01BF849922480EA
:1039A000002070476FEA200070470000B0FA80F3F3
:1039B00010FA03F2C3F19D030AD0D90501EB1220DE
:1039C000530638BF704700F1010008BF20F0010026
:1039D00070470EF1020E2EF0030E5EF8044B2442E7
:1039E00004D44FEA4102B2F17F4F11D84FEA4003AD
:1039F000B3F17F4F0CD80ED14FEAD07CB2F17F4F9C
:103A00000CEB4C0C0CF1020C08BF4CEBD17C04E02D
:103A10004FF0080C01E04FEAD17C0CEB4C0324FA88
:103A200003F404F00704B4F1040C06D20EEB840C8A
:103A3000BDE810404CF0010C6047DFE80CF00708CF
:103A400002024FF00040A0F5800010BD0846420081
:103A500018BFD2F1807288BF00F0004010BDFF2176
:103A600041EAD050C005704790EA010F48BF81F08D
:103A700000413FF520AF421A04D882F00042A0EB8B
:103A8000020011444FEAD0524FF07F4C1CEA410F24
:103A9000A2EBD15318BF9CEA026F4AD04FF0004C02
:103AA0004CEA00204CEA012121FA03FCB0EB0C0C9B
:103AB0000FD412F0FE0F36D05FEA4C001DD5001275
:103AC00040EBC25038BF70471CF03F0F18BF704723
:103AD0000BE0A2F101025FEA1C2040EBC25038BFAC
:103AE00070471CF07F0F18BF7047C3F12003994047
:103AF00014BF401E20F00100704780084FEA1223D7
:103B000008BF7047B0FA80FCA2EB0C02CCF1280C85
:103B100060FA0CF093EA122F04BF00EBC25070471A
:103B20004FEAC3707047130A5FEADC1008BF7047A2
:103B3000F6E79CEA026F04D010EA5C0F08BF002091
:103B4000704710B5FFF745FF40DFF63E81F00040BB
:103B50007047344310100134431010017C3B0008BF
:103B600000000020540000006C010008D03B000859
:103B7000540000202C07000088010008000000000D
:103B80000000000000A24A04000000000000000045
:103B900001020304060708090000000000000000FD
:103BA0000000000000000000000000000000000015
:103BB0000000000000000000000000000000000005
:103BC00001020304010203040607080902040608AF
:0400000508000131BD
:00000001FF
